{
  "contractName": "Registry",
  "abi": [
    {
      "inputs": [],
      "stateMutability": "nonpayable",
      "type": "constructor"
    },
    {
      "inputs": [
        {
          "internalType": "address",
          "name": "",
          "type": "address"
        },
        {
          "internalType": "uint256",
          "name": "",
          "type": "uint256"
        }
      ],
      "name": "adminMapsProperty",
      "outputs": [
        {
          "internalType": "uint256",
          "name": "surveyNo",
          "type": "uint256"
        },
        {
          "internalType": "string",
          "name": "state",
          "type": "string"
        },
        {
          "internalType": "string",
          "name": "district",
          "type": "string"
        },
        {
          "internalType": "string",
          "name": "city",
          "type": "string"
        },
        {
          "internalType": "address",
          "name": "AllocatedTo",
          "type": "address"
        }
      ],
      "stateMutability": "view",
      "type": "function",
      "constant": true
    },
    {
      "inputs": [
        {
          "internalType": "address",
          "name": "",
          "type": "address"
        }
      ],
      "name": "admins",
      "outputs": [
        {
          "internalType": "address",
          "name": "adminAddress",
          "type": "address"
        },
        {
          "internalType": "string",
          "name": "city",
          "type": "string"
        },
        {
          "internalType": "string",
          "name": "district",
          "type": "string"
        },
        {
          "internalType": "string",
          "name": "state",
          "type": "string"
        }
      ],
      "stateMutability": "view",
      "type": "function",
      "constant": true
    },
    {
      "inputs": [
        {
          "internalType": "string",
          "name": "",
          "type": "string"
        },
        {
          "internalType": "string",
          "name": "",
          "type": "string"
        },
        {
          "internalType": "string",
          "name": "",
          "type": "string"
        },
        {
          "internalType": "uint256",
          "name": "",
          "type": "uint256"
        }
      ],
      "name": "landDetalsMap",
      "outputs": [
        {
          "internalType": "address",
          "name": "owner",
          "type": "address"
        },
        {
          "internalType": "string",
          "name": "tendertype",
          "type": "string"
        },
        {
          "internalType": "string",
          "name": "tenderName",
          "type": "string"
        },
        {
          "internalType": "address",
          "name": "admin",
          "type": "address"
        },
        {
          "internalType": "string",
          "name": "ipfsuri",
          "type": "string"
        },
        {
          "internalType": "uint256",
          "name": "propertyId",
          "type": "uint256"
        },
        {
          "internalType": "uint256",
          "name": "surveyNumber",
          "type": "uint256"
        },
        {
          "internalType": "uint256",
          "name": "index",
          "type": "uint256"
        },
        {
          "internalType": "bool",
          "name": "registered",
          "type": "bool"
        },
        {
          "internalType": "uint256",
          "name": "marketValue",
          "type": "uint256"
        },
        {
          "internalType": "bool",
          "name": "markAvailable",
          "type": "bool"
        },
        {
          "internalType": "uint256",
          "name": "noOfRequests",
          "type": "uint256"
        }
      ],
      "stateMutability": "view",
      "type": "function",
      "constant": true
    },
    {
      "inputs": [
        {
          "internalType": "address",
          "name": "",
          "type": "address"
        },
        {
          "internalType": "uint256",
          "name": "",
          "type": "uint256"
        }
      ],
      "name": "ownerMapsProperty",
      "outputs": [
        {
          "internalType": "uint256",
          "name": "surveyNumber",
          "type": "uint256"
        },
        {
          "internalType": "string",
          "name": "state",
          "type": "string"
        },
        {
          "internalType": "string",
          "name": "district",
          "type": "string"
        },
        {
          "internalType": "string",
          "name": "city",
          "type": "string"
        }
      ],
      "stateMutability": "view",
      "type": "function",
      "constant": true
    },
    {
      "inputs": [
        {
          "internalType": "address",
          "name": "",
          "type": "address"
        },
        {
          "internalType": "uint256",
          "name": "",
          "type": "uint256"
        }
      ],
      "name": "requestedLands",
      "outputs": [
        {
          "internalType": "uint256",
          "name": "surveyNumber",
          "type": "uint256"
        },
        {
          "internalType": "string",
          "name": "state",
          "type": "string"
        },
        {
          "internalType": "string",
          "name": "district",
          "type": "string"
        },
        {
          "internalType": "string",
          "name": "city",
          "type": "string"
        }
      ],
      "stateMutability": "view",
      "type": "function",
      "constant": true
    },
    {
      "inputs": [],
      "name": "superAdmin",
      "outputs": [
        {
          "internalType": "address",
          "name": "",
          "type": "address"
        }
      ],
      "stateMutability": "view",
      "type": "function",
      "constant": true
    },
    {
      "inputs": [],
      "name": "totalAdmins",
      "outputs": [
        {
          "internalType": "uint256",
          "name": "",
          "type": "uint256"
        }
      ],
      "stateMutability": "view",
      "type": "function",
      "constant": true
    },
    {
      "inputs": [],
      "name": "totalTendors",
      "outputs": [
        {
          "internalType": "uint256",
          "name": "",
          "type": "uint256"
        }
      ],
      "stateMutability": "view",
      "type": "function",
      "constant": true
    },
    {
      "inputs": [],
      "name": "totalVendors",
      "outputs": [
        {
          "internalType": "uint256",
          "name": "",
          "type": "uint256"
        }
      ],
      "stateMutability": "view",
      "type": "function",
      "constant": true
    },
    {
      "inputs": [
        {
          "internalType": "address",
          "name": "",
          "type": "address"
        }
      ],
      "name": "userProfile",
      "outputs": [
        {
          "internalType": "address",
          "name": "userAddr",
          "type": "address"
        },
        {
          "internalType": "string",
          "name": "fullName",
          "type": "string"
        },
        {
          "internalType": "string",
          "name": "gender",
          "type": "string"
        },
        {
          "internalType": "string",
          "name": "email",
          "type": "string"
        },
        {
          "internalType": "string",
          "name": "contact",
          "type": "string"
        },
        {
          "internalType": "string",
          "name": "residentialAddr",
          "type": "string"
        },
        {
          "internalType": "uint256",
          "name": "totalIndices",
          "type": "uint256"
        },
        {
          "internalType": "uint256",
          "name": "requestIndices",
          "type": "uint256"
        }
      ],
      "stateMutability": "view",
      "type": "function",
      "constant": true
    },
    {
      "inputs": [
        {
          "internalType": "address",
          "name": "",
          "type": "address"
        }
      ],
      "name": "vendors",
      "outputs": [
        {
          "internalType": "address",
          "name": "vendorAddress",
          "type": "address"
        },
        {
          "internalType": "string",
          "name": "city",
          "type": "string"
        },
        {
          "internalType": "string",
          "name": "district",
          "type": "string"
        },
        {
          "internalType": "string",
          "name": "state",
          "type": "string"
        },
        {
          "internalType": "string",
          "name": "year",
          "type": "string"
        },
        {
          "internalType": "string",
          "name": "vendortype",
          "type": "string"
        },
        {
          "internalType": "uint256",
          "name": "rating",
          "type": "uint256"
        },
        {
          "internalType": "uint256",
          "name": "noofRaters",
          "type": "uint256"
        }
      ],
      "stateMutability": "view",
      "type": "function",
      "constant": true
    },
    {
      "inputs": [
        {
          "internalType": "address",
          "name": "_adminAddr",
          "type": "address"
        },
        {
          "internalType": "string",
          "name": "_state",
          "type": "string"
        },
        {
          "internalType": "string",
          "name": "_district",
          "type": "string"
        },
        {
          "internalType": "string",
          "name": "_city",
          "type": "string"
        },
        {
          "internalType": "string",
          "name": "_fullName",
          "type": "string"
        },
        {
          "internalType": "string",
          "name": "_gender",
          "type": "string"
        },
        {
          "internalType": "string",
          "name": "_email",
          "type": "string"
        },
        {
          "internalType": "string",
          "name": "_contact",
          "type": "string"
        },
        {
          "internalType": "string",
          "name": "_residentialAddr",
          "type": "string"
        }
      ],
      "name": "addAdmin",
      "outputs": [],
      "stateMutability": "nonpayable",
      "type": "function"
    },
    {
      "inputs": [
        {
          "internalType": "address",
          "name": "_vendorAddr",
          "type": "address"
        },
        {
          "internalType": "string",
          "name": "_state",
          "type": "string"
        },
        {
          "internalType": "string",
          "name": "_district",
          "type": "string"
        },
        {
          "internalType": "string",
          "name": "_city",
          "type": "string"
        },
        {
          "internalType": "string",
          "name": "_fullName",
          "type": "string"
        },
        {
          "internalType": "string",
          "name": "_gender",
          "type": "string"
        },
        {
          "internalType": "string",
          "name": "_email",
          "type": "string"
        },
        {
          "internalType": "string",
          "name": "_contact",
          "type": "string"
        },
        {
          "internalType": "string",
          "name": "_residentialAddr",
          "type": "string"
        },
        {
          "internalType": "string",
          "name": "_year",
          "type": "string"
        },
        {
          "internalType": "string",
          "name": "_vendortype",
          "type": "string"
        }
      ],
      "name": "addVendor",
      "outputs": [],
      "stateMutability": "nonpayable",
      "type": "function"
    },
    {
      "inputs": [
        {
          "internalType": "address",
          "name": "_vendortorating",
          "type": "address"
        },
        {
          "internalType": "uint256",
          "name": "_ratenumber",
          "type": "uint256"
        }
      ],
      "name": "GiveRating",
      "outputs": [],
      "stateMutability": "nonpayable",
      "type": "function"
    },
    {
      "inputs": [],
      "name": "isAdmin",
      "outputs": [
        {
          "internalType": "bool",
          "name": "",
          "type": "bool"
        }
      ],
      "stateMutability": "view",
      "type": "function",
      "constant": true
    },
    {
      "inputs": [],
      "name": "isVendor",
      "outputs": [
        {
          "internalType": "bool",
          "name": "",
          "type": "bool"
        }
      ],
      "stateMutability": "view",
      "type": "function",
      "constant": true
    },
    {
      "inputs": [
        {
          "internalType": "string",
          "name": "_state",
          "type": "string"
        },
        {
          "internalType": "string",
          "name": "_district",
          "type": "string"
        },
        {
          "internalType": "string",
          "name": "_city",
          "type": "string"
        },
        {
          "internalType": "uint256",
          "name": "_propertyId",
          "type": "uint256"
        },
        {
          "internalType": "uint256",
          "name": "_surveyNo",
          "type": "uint256"
        },
        {
          "internalType": "address",
          "name": "_owner",
          "type": "address"
        },
        {
          "internalType": "uint256",
          "name": "_marketValue",
          "type": "uint256"
        },
        {
          "internalType": "string",
          "name": "_tenderName",
          "type": "string"
        },
        {
          "internalType": "string",
          "name": "_tendertype",
          "type": "string"
        },
        {
          "internalType": "string",
          "name": "_ipfsuri",
          "type": "string"
        }
      ],
      "name": "registerLand",
      "outputs": [],
      "stateMutability": "nonpayable",
      "type": "function"
    },
    {
      "inputs": [
        {
          "internalType": "string",
          "name": "_fullName",
          "type": "string"
        },
        {
          "internalType": "string",
          "name": "_gender",
          "type": "string"
        },
        {
          "internalType": "string",
          "name": "_email",
          "type": "string"
        },
        {
          "internalType": "string",
          "name": "_contact",
          "type": "string"
        },
        {
          "internalType": "string",
          "name": "_residentialAddr",
          "type": "string"
        }
      ],
      "name": "setUserProfile",
      "outputs": [],
      "stateMutability": "nonpayable",
      "type": "function"
    },
    {
      "inputs": [
        {
          "internalType": "uint256",
          "name": "indexNo",
          "type": "uint256"
        }
      ],
      "name": "markMyPropertyAvailable",
      "outputs": [],
      "stateMutability": "nonpayable",
      "type": "function"
    },
    {
      "inputs": [
        {
          "internalType": "string",
          "name": "_state",
          "type": "string"
        },
        {
          "internalType": "string",
          "name": "_district",
          "type": "string"
        },
        {
          "internalType": "string",
          "name": "_city",
          "type": "string"
        },
        {
          "internalType": "uint256",
          "name": "_surveyNo",
          "type": "uint256"
        },
        {
          "internalType": "uint256",
          "name": "_BidAmount",
          "type": "uint256"
        },
        {
          "internalType": "string",
          "name": "_FileURI",
          "type": "string"
        }
      ],
      "name": "RequestForBuy",
      "outputs": [],
      "stateMutability": "nonpayable",
      "type": "function"
    },
    {
      "inputs": [
        {
          "internalType": "uint256",
          "name": "_index",
          "type": "uint256"
        },
        {
          "internalType": "uint256",
          "name": "_reqNo",
          "type": "uint256"
        }
      ],
      "name": "AcceptRequest",
      "outputs": [],
      "stateMutability": "nonpayable",
      "type": "function"
    },
    {
      "inputs": [
        {
          "internalType": "string",
          "name": "_state",
          "type": "string"
        },
        {
          "internalType": "string",
          "name": "_district",
          "type": "string"
        },
        {
          "internalType": "string",
          "name": "_city",
          "type": "string"
        },
        {
          "internalType": "uint256",
          "name": "_surveyNo",
          "type": "uint256"
        }
      ],
      "name": "getLandDetails",
      "outputs": [
        {
          "internalType": "address",
          "name": "",
          "type": "address"
        },
        {
          "internalType": "uint256",
          "name": "",
          "type": "uint256"
        },
        {
          "internalType": "uint256",
          "name": "",
          "type": "uint256"
        },
        {
          "internalType": "uint256",
          "name": "",
          "type": "uint256"
        },
        {
          "internalType": "string",
          "name": "",
          "type": "string"
        },
        {
          "internalType": "string",
          "name": "",
          "type": "string"
        },
        {
          "internalType": "string",
          "name": "",
          "type": "string"
        }
      ],
      "stateMutability": "view",
      "type": "function",
      "constant": true
    },
    {
      "inputs": [
        {
          "internalType": "string",
          "name": "_state",
          "type": "string"
        },
        {
          "internalType": "string",
          "name": "_district",
          "type": "string"
        },
        {
          "internalType": "string",
          "name": "_city",
          "type": "string"
        },
        {
          "internalType": "uint256",
          "name": "_surveyNo",
          "type": "uint256"
        }
      ],
      "name": "getRequestCnt_propId",
      "outputs": [
        {
          "internalType": "uint256",
          "name": "",
          "type": "uint256"
        },
        {
          "internalType": "uint256",
          "name": "",
          "type": "uint256"
        }
      ],
      "stateMutability": "view",
      "type": "function",
      "constant": true
    },
    {
      "inputs": [
        {
          "internalType": "string",
          "name": "_state",
          "type": "string"
        },
        {
          "internalType": "string",
          "name": "_district",
          "type": "string"
        },
        {
          "internalType": "string",
          "name": "_city",
          "type": "string"
        },
        {
          "internalType": "uint256",
          "name": "_surveyNo",
          "type": "uint256"
        },
        {
          "internalType": "uint256",
          "name": "_reqIndex",
          "type": "uint256"
        }
      ],
      "name": "getRequesterDetail",
      "outputs": [
        {
          "internalType": "address",
          "name": "",
          "type": "address"
        }
      ],
      "stateMutability": "view",
      "type": "function",
      "constant": true
    },
    {
      "inputs": [
        {
          "internalType": "string",
          "name": "_state",
          "type": "string"
        },
        {
          "internalType": "string",
          "name": "_district",
          "type": "string"
        },
        {
          "internalType": "string",
          "name": "_city",
          "type": "string"
        },
        {
          "internalType": "uint256",
          "name": "_surveyNo",
          "type": "uint256"
        },
        {
          "internalType": "uint256",
          "name": "_reqIndex",
          "type": "uint256"
        }
      ],
      "name": "getRequesterBidAmount",
      "outputs": [
        {
          "internalType": "uint256",
          "name": "",
          "type": "uint256"
        }
      ],
      "stateMutability": "view",
      "type": "function",
      "constant": true
    },
    {
      "inputs": [
        {
          "internalType": "string",
          "name": "_state",
          "type": "string"
        },
        {
          "internalType": "string",
          "name": "_district",
          "type": "string"
        },
        {
          "internalType": "string",
          "name": "_city",
          "type": "string"
        },
        {
          "internalType": "uint256",
          "name": "_surveyNo",
          "type": "uint256"
        },
        {
          "internalType": "uint256",
          "name": "_reqIndex",
          "type": "uint256"
        }
      ],
      "name": "getRequesterFileURI",
      "outputs": [
        {
          "internalType": "string",
          "name": "",
          "type": "string"
        }
      ],
      "stateMutability": "view",
      "type": "function",
      "constant": true
    },
    {
      "inputs": [
        {
          "internalType": "string",
          "name": "_state",
          "type": "string"
        },
        {
          "internalType": "string",
          "name": "_district",
          "type": "string"
        },
        {
          "internalType": "string",
          "name": "_city",
          "type": "string"
        },
        {
          "internalType": "uint256",
          "name": "_surveyNo",
          "type": "uint256"
        },
        {
          "internalType": "uint256",
          "name": "_reqIndex",
          "type": "uint256"
        }
      ],
      "name": "getRequesterName",
      "outputs": [
        {
          "internalType": "string",
          "name": "",
          "type": "string"
        }
      ],
      "stateMutability": "view",
      "type": "function",
      "constant": true
    },
    {
      "inputs": [
        {
          "internalType": "string",
          "name": "_state",
          "type": "string"
        },
        {
          "internalType": "string",
          "name": "_district",
          "type": "string"
        },
        {
          "internalType": "string",
          "name": "_city",
          "type": "string"
        },
        {
          "internalType": "uint256",
          "name": "_surveyNo",
          "type": "uint256"
        }
      ],
      "name": "isAvailable",
      "outputs": [
        {
          "internalType": "bool",
          "name": "",
          "type": "bool"
        }
      ],
      "stateMutability": "view",
      "type": "function",
      "constant": true
    },
    {
      "inputs": [
        {
          "internalType": "uint256",
          "name": "indx",
          "type": "uint256"
        }
      ],
      "name": "getOwnerOwns",
      "outputs": [
        {
          "internalType": "string",
          "name": "",
          "type": "string"
        },
        {
          "internalType": "string",
          "name": "",
          "type": "string"
        },
        {
          "internalType": "string",
          "name": "",
          "type": "string"
        },
        {
          "internalType": "uint256",
          "name": "",
          "type": "uint256"
        }
      ],
      "stateMutability": "view",
      "type": "function",
      "constant": true
    },
    {
      "inputs": [
        {
          "internalType": "uint256",
          "name": "indx",
          "type": "uint256"
        }
      ],
      "name": "getAdminOwns",
      "outputs": [
        {
          "internalType": "string",
          "name": "",
          "type": "string"
        },
        {
          "internalType": "string",
          "name": "",
          "type": "string"
        },
        {
          "internalType": "string",
          "name": "",
          "type": "string"
        },
        {
          "internalType": "uint256",
          "name": "",
          "type": "uint256"
        }
      ],
      "stateMutability": "view",
      "type": "function",
      "constant": true
    },
    {
      "inputs": [
        {
          "internalType": "uint256",
          "name": "indx",
          "type": "uint256"
        }
      ],
      "name": "getRequestedLands",
      "outputs": [
        {
          "internalType": "string",
          "name": "",
          "type": "string"
        },
        {
          "internalType": "string",
          "name": "",
          "type": "string"
        },
        {
          "internalType": "string",
          "name": "",
          "type": "string"
        },
        {
          "internalType": "uint256",
          "name": "",
          "type": "uint256"
        }
      ],
      "stateMutability": "view",
      "type": "function",
      "constant": true
    },
    {
      "inputs": [],
      "name": "getUserProfile",
      "outputs": [
        {
          "internalType": "string",
          "name": "",
          "type": "string"
        },
        {
          "internalType": "string",
          "name": "",
          "type": "string"
        },
        {
          "internalType": "string",
          "name": "",
          "type": "string"
        },
        {
          "internalType": "string",
          "name": "",
          "type": "string"
        },
        {
          "internalType": "string",
          "name": "",
          "type": "string"
        }
      ],
      "stateMutability": "view",
      "type": "function",
      "constant": true
    },
    {
      "inputs": [
        {
          "internalType": "address",
          "name": "_addr",
          "type": "address"
        }
      ],
      "name": "getUserName",
      "outputs": [
        {
          "internalType": "string",
          "name": "",
          "type": "string"
        }
      ],
      "stateMutability": "view",
      "type": "function",
      "constant": true
    },
    {
      "inputs": [
        {
          "internalType": "address",
          "name": "_addr",
          "type": "address"
        }
      ],
      "name": "getestablishYear",
      "outputs": [
        {
          "internalType": "string",
          "name": "",
          "type": "string"
        }
      ],
      "stateMutability": "view",
      "type": "function",
      "constant": true
    },
    {
      "inputs": [],
      "name": "getIndices",
      "outputs": [
        {
          "internalType": "uint256",
          "name": "",
          "type": "uint256"
        },
        {
          "internalType": "uint256",
          "name": "",
          "type": "uint256"
        }
      ],
      "stateMutability": "view",
      "type": "function",
      "constant": true
    },
    {
      "inputs": [
        {
          "internalType": "string",
          "name": "_state",
          "type": "string"
        },
        {
          "internalType": "string",
          "name": "_district",
          "type": "string"
        },
        {
          "internalType": "string",
          "name": "_city",
          "type": "string"
        },
        {
          "internalType": "uint256",
          "name": "_surveyNo",
          "type": "uint256"
        }
      ],
      "name": "didIRequested",
      "outputs": [
        {
          "internalType": "bool",
          "name": "",
          "type": "bool"
        }
      ],
      "stateMutability": "view",
      "type": "function",
      "constant": true
    },
    {
      "inputs": [],
      "name": "getTotalTendors",
      "outputs": [
        {
          "internalType": "uint256",
          "name": "",
          "type": "uint256"
        }
      ],
      "stateMutability": "view",
      "type": "function",
      "constant": true
    }
  ],
  "bytecode": "0x6080806040523461002e576103e860035560008054600160a060020a03191633179055614b8090816100348239f35b600080fdfe6080604052600436101561001257600080fd5b7c01000000000000000000000000000000000000000000000000000000006000350480630e2279af1461457b5780631555ff1e146144605780631c8e89621461441d578063253bc13c146143e057806327e30c361461435357806329575f6a1461432c5780632ca305f3146142915780633bbd43b31461424b578063429b62e5146141b357806344e05734146140375780635863056d146140015780636d1b9a8e14613f665780636f61c74414613e7d578063757612ef146134fb57806379ecc8cb146116fc5780638b5bcc3d1461344357806398faad5514613425578063992369da146133e5578063a10da966146133a5578063a3743d5c146127a1578063aa9c0dcd146121e4578063abb5cd051461218d578063b6db75a014612172578063d06efd67146120fc578063d1dbeff214612088578063d41cc5c814611794578063d44cafa51461171a578063d67b6628146116fc578063d84f55ee146116ab578063d975f5f014611088578063dd7cee491461056e578063e331ad7c14610330578063e7217f1614610315578063eaec23fa146102ef578063eb68048b146102d1578063f70e8d441461027f5763fc47f57d146101cf57600080fd5b3461027a5760208060031936011261027a576004353360005260078252604060002081600052825261027660406000205433600052600784526040600020836000528452610223600160406000200161463f565b9233600052600785526040600020816000528552610247600260406000200161463f565b9433600052600781526040600020916000525261026a600360406000200161463f565b604051948594856148eb565b0390f35b600080fd5b3461027a576102a26102a26102a86102963661491c565b96929193959095614824565b9061484a565b90600052602052600b604060002001906000526020526020600260406000200154604051908152f35b3461027a57600036600319011261027a576020600154604051908152f35b3461027a57602061030b610302366147c1565b92919091614ac6565b6040519015158152f35b3461027a57600036600319011261027a57602061030b614aa0565b3461027a5761033e366147c1565b9192604051908051602095868301916103588186856146e3565b840193878160099687815203019020610371908261484a565b61037b908661484a565b866000528752604060002054600160a060020a031695604051888186516103a38183896146e3565b8101888152030190206103b6908361484a565b6103c0908761484a565b81600052885260406000206005015495604051898187516103e281838a6146e3565b8101898152030190206103f5908461484a565b6103ff908261484a565b826000528952604060002060070154926040518a81885161042181838b6146e3565b81018a815203019020610434908261484a565b61043e908361484a565b836000528a528660406000200154946040518b81895161045f8183876146e3565b81018b815203019020610472908361484a565b61047c908461484a565b846000528b528a60406000206002016104949061463f565b97604051828183516104a78183896146e3565b81018d8152030190206104ba908561484a565b6104c4908661484a565b86600052825260406000206001016104db9061463f565b99604051809481935180926104ef926146e3565b8201908152030190206105019161484a565b61050a9161484a565b90600052875260406000206004016105219061463f565b946040519788978852870152604086015260608501526080840160e0905260e0840161054c91614706565b83810360a085015261055d91614706565b82810360c084015261027691614706565b3461027a5761014036600319011261027a5760043567ffffffffffffffff811161027a576105a090369060040161476a565b60243567ffffffffffffffff811161027a576105c090369060040161476a565b9060443567ffffffffffffffff811161027a576105e190369060040161476a565b60a43591600160a060020a0393848416840361027a5760e43567ffffffffffffffff811161027a5761061790369060040161476a565b916101043567ffffffffffffffff811161027a5761063990369060040161476a565b6101243567ffffffffffffffff811161027a5761065a90369060040161476a565b33600052600460205233886040600020541603611041573360005260046020526106986106a660036040600020016040519283916020830190614a1c565b03601f19810183528261461d565b6020815191012060405160208101906106d760208288516106ca8187858d016146e3565b810103808452018261461d565b5190201480610fef575b80610f9d575b15610f305761071d61071760405160208187516107078183858c016146e3565b810160098152030190208661484a565b8761484a565b600354908160005260205260ff60086040600020015416610ec35761076961076360405160208188516107538183858d016146e3565b810160098152030190208761484a565b8861484a565b906000526020526040600020913360005260066020526040600020600a602052600660406000200154600052602052604060002095600a602052600160a060020a03198a8a168186541617855560038501903390825416179055600354806005860155600685015589891660005260066040600020015460078501556008840160ff199060018282541617905560c43560098601556001600a86019182541617905580519067ffffffffffffffff8211610b395761082a60028601546145df565b601f8111610e8d575b50602090601f8311600114610e1a57610867929160009183610e0f575b5050816002029160080260020a6000190419161790565b60028401555b80519067ffffffffffffffff8211610b395761088c60018501546145df565b601f8111610dd9575b50602090601f8311600114610d66576108c8929160009183610cb2575050816002029160080260020a6000190419161790565b60018301555b80519067ffffffffffffffff8211610b39576108ed60048401546145df565b601f8111610d30575b50602090601f8311600114610cbd57918061092c92600494600092610cb2575050816002029160080260020a6000190419161790565b9101555b600354835580519067ffffffffffffffff8211610b395761095460018501546145df565b601f8111610c7c575b50602090601f8311600114610c0957610990929160009183610b52575050816002029160080260020a6000190419161790565b60018301555b80519067ffffffffffffffff8211610b39576109b560028401546145df565b601f8111610bd3575b50602090601f8311600114610b5d5791806109f59260039594600092610b52575050816002029160080260020a6000190419161790565b60028201555b019080519067ffffffffffffffff8211610b3957610a1983546145df565b601f8111610afb575b50602090601f8311600114610a9057610a55929160009183610a85575050816002029160080260020a6000190419161790565b90555b16600052600a6020526006604060002001610a738154614983565b9055610a80600354614983565b600355005b015190508680610850565b90601f198316918460005260206000209260005b818110610ae357509160029391856001969410610ac8575b50505002019055610a58565b01516008601f841602840a6000190419169055868080610abc565b92936020600181928786015181550195019301610aa4565b610b29908460005260206000206020601f86010481019160208610610b2f575b601f60209101040190614992565b85610a22565b9091508190610b1b565b60e060020a634e487b7102600052604160045260246000fd5b015190508880610850565b906002840160005260206000209160005b601f1985168110610bbb5750926001926002926003969583601f19811610610ba0575b505050020160028201556109fb565b01516008601f841602840a6000190419169055888080610b91565b91926020600181928685015181550194019201610b6e565b610c03906002850160005260206000206020601f86010481019160208610610b2f57601f60209101040190614992565b866109be565b906001850160005260206000209160005b601f1985168110610c645750918391600293600195601f19811610610c49575b50505002016001830155610996565b01516008601f841602840a6000190419169055888080610c3a565b91926020600181928685015181550194019201610c1a565b610cac906001860160005260206000206020601f86010481019160208610610b2f57601f60209101040190614992565b8761095d565b015190508b80610850565b906004840160005260206000209160005b601f1985168110610d1857509260019260029260049583601f19811610610cfd575b5050500201910155610930565b01516008601f841602840a60001904191690558b8080610cf0565b91926020600181928685015181550194019201610cce565b610d60906004850160005260206000206020601f86010481019160208610610b2f57601f60209101040190614992565b896108f6565b906001850160005260206000209160005b601f1985168110610dc15750918391600293600195601f19811610610da6575b505050020160018301556108ce565b01516008601f841602840a60001904191690558b8080610d97565b91926020600181928685015181550194019201610d77565b610e09906001860160005260206000206020601f86010481019160208610610b2f57601f60209101040190614992565b8a610895565b015190508c80610850565b906002860160005260206000209160005b601f1985168110610e755750918391600293600195601f19811610610e5a575b5050500201600284015561086d565b01516008601f841602840a60001904191690558c8080610e4b565b91926020600181928685015181550194019201610e2b565b610ebd906002870160005260206000206020601f86010481019160208610610b2f57601f60209101040190614992565b8b610833565b608460405160e560020a62461bcd02815260206004820152602160248201527f537572766579204e756d62657220616c7265616479207265676973746572656460448201527f21000000000000000000000000000000000000000000000000000000000000006064820152fd5b608460405160e560020a62461bcd02815260206004820152602a60248201527f41646d696e2063616e206f6e6c79207265676973746572206c616e64206f662060448201527f73616d6520636974792e000000000000000000000000000000000000000000006064820152fd5b503360005260046020526001604060002001604051610fc481610698602082018095614a1c565b5190206040516020810190610fe6602082816106ca8d878151938492016146e3565b519020146106e7565b50336000526004602052600260406000200160405161101681610698602082018095614a1c565b5190206040516020810190611038602082816106ca8b878151938492016146e3565b519020146106e1565b606460405160e560020a62461bcd02815260206004820152601c60248201527f4f6e6c792061646d696e2063616e205265676973746572206c616e64000000006044820152fd5b3461027a5760c036600319011261027a5760043567ffffffffffffffff811161027a576110b990369060040161476a565b60243567ffffffffffffffff811161027a576110d990369060040161476a565b9060443567ffffffffffffffff811161027a576110fa90369060040161476a565b9060a43567ffffffffffffffff811161027a5761111b90369060040161476a565b61113c61113660405160208186516107078183858b016146e3565b8461484a565b606435600052602052604060002090600160ff600a8401541615150361163e57600c82015490600b83018260005280602052604060002033600160a060020a031982541617905533600052600a602052600760406000200154926000526020526040600020916001830155608435600283015580519067ffffffffffffffff8211610b39576111ce60038401546145df565b601f8111611608575b50602090601f831160011461159557918061120d9260039460009261158a575050816002029160080260020a6000190419161790565b9101555b600c61121f81830154614983565b9101553360005260086020526040600020600a602052600760406000200154600052602052604060002090606435825580519067ffffffffffffffff8211610b395761126e60018401546145df565b601f8111611554575b50602090601f83116001146114e1576112aa929160009183610a85575050816002029160080260020a6000190419161790565b60018201555b60028101835167ffffffffffffffff8111610b39576112cf82546145df565b601f81116114ae575b506020601f821160011461144157908061130e9260039697600092611436575050816002029160080260020a6000190419161790565b90555b019080519067ffffffffffffffff8211610b395761132f83546145df565b601f8111611403575b50602090601f83116001146113985761136b92916000918361138d575050816002029160080260020a6000190419161790565b90555b33600052600a60205260076040600020016113898154614983565b9055005b015190508480610850565b90601f198316918460005260206000209260005b8181106113eb575091600293918560019694106113d0575b5050500201905561136e565b01516008601f841602840a60001904191690558480806113c4565b929360206001819287860151815501950193016113ac565b611430908460005260206000206020601f86010481019160208610610b2f57601f60209101040190614992565b83611338565b015190508780610850565b601f198216958360005260206000209660005b81811061149657509660029284926001956003999a1061147b575b50505002019055611311565b01516008601f841602840a600019041916905587808061146f565b83830151895560019098019760209384019301611454565b6114db908360005260206000206020601f85010481019160208510610b2f57601f60209101040190614992565b856112d8565b906001840160005260206000209160005b601f198516811061153c5750918391600293600195601f19811610611521575b505050020160018201556112b0565b01516008601f841602840a6000190419169055868080611512565b919260206001819286850151815501940192016114f2565b611584906001850160005260206000206020601f86010481019160208610610b2f57601f60209101040190614992565b85611277565b015190508980610850565b906003840160005260206000209160005b601f19851681106115f057509260019260029260039583601f198116106115d5575b5050500201910155611211565b01516008601f841602840a60001904191690558980806115c8565b919260206001819286850151815501940192016115a6565b611638906003850160005260206000206020601f86010481019160208610610b2f57601f60209101040190614992565b876111d7565b608460405160e560020a62461bcd02815260206004820152602560248201527f546869732070726f7065727479206973204e4f54206d61726b656420666f722060448201527f73616c65210000000000000000000000000000000000000000000000000000006064820152fd5b3461027a57602036600319011261027a57600160a060020a036116cc6145c9565b16600052600a6020526102766116e8600160406000200161463f565b604051918291602083526020830190614706565b3461027a57600036600319011261027a576020600354604051908152f35b3461027a57604036600319011261027a57600160a060020a0361173b6145c9565b16806000526005602052600660406000200154602435810180911161177b5760079160005260056020526040600020906006820155016113898154614983565b60e060020a634e487b7102600052601160045260246000fd5b3461027a57604036600319011261027a5733600090815260066020908152604080832060043580855292529091208054906117d19060010161463f565b913360005260066020526040600020816000526020526117f7600260406000200161463f565b9033600052600660205260406000209060005260205261181d600360406000200161463f565b9161184b61113660405160208188516118398183858d016146e3565b6009818301528101030190208461484a565b81600052602052600b604060002001602435600052602052600160a060020a0360406000205416926118a66118a0604051602081816118908b838151938492016146e3565b810160098152030190208561484a565b8261484a565b82600052602052600b6040600020016024356000526020526118db6118a0604051602081816118908b838151938492016146e3565b82600052602052600c6040600020015461190e611908604051602081816107078c838151938492016146e3565b8361484a565b83600052602052600b604060002001602435600052602052611936600360406000200161463f565b611953611136604051602081816107538d838151938492016146e3565b84600052602052600b6040600020016024356000526020526002604060002001549160005b818110611f4757505061199e611136604051602081816107538d838151938492016146e3565b84600052602052604060002086600160a060020a03198254161790556119d7611136604051602081816107538d838151938492016146e3565b8460005260205260046040600020019080519067ffffffffffffffff8211610b3957611a0383546145df565b601f8111611f14575b50602090601f8311600114611ea757611a3f929160009183611e9c575050816002029160080260020a6000190419161790565b90555b611a5f611908604051602081816107078c838151938492016146e3565b83600052602052600960406000200155611a8c6118a0604051602081816118908b838151938492016146e3565b82600052602052600a60406000200160ff198154169055611ac06118a0604051602081816118908b838151938492016146e3565b826000526020526000600c60408220015583600052600a602052600660406000200154926006602052604060002084600052602052604060002095838755805167ffffffffffffffff8111610b3957611b1c60018901546145df565b601f8111611e66575b506020601f8211600114611df6579080611b5792600091611deb575b50816002029160080260020a6000190419161790565b60018801555b815167ffffffffffffffff8111610b3957611b7b60028901546145df565b601f8111611db5575b506020601f8211600114611d45579080611bb592600091611d3a5750816002029160080260020a6000190419161790565b60028801555b82519667ffffffffffffffff8811610b3957611bda60038201546145df565b601f8111611d04575b50602097601f8111600114611c84576102a29392611c3f926003611c2884602095611c4f9b9c9d9e600091611c795750816002029160080260020a6000190419161790565b9101555b81604051938285809451938492016146e3565b810160098152030190209061484a565b90600052602052600760406000200155600052600a60205260066040600020016113898154614983565b90508a01518f611b41565b60038201600052602060002060005b601f1983168110611cec575092611c3f92600360016002856102a29998611c4f9c9d9e9f602098601f19811610611cd1575b50500201910155611c2c565b8c01516008601f841602840a60001904191690558f80611cc5565b868b0151825560209a8b019a60019092019101611c93565b611d34906003830160005260206000206020601f8c010481019160208c10610b2f57601f60209101040190614992565b88611be3565b90508401518a611b41565b6002890160005260206000209060005b601f1984168110611d9d57509160029160019382601f19811610611d82575b505002016002880155611bbb565b8601516008601f841602840a60001904191690558a80611d74565b90916020600181928589015181550193019101611d55565b611de59060028a0160005260206000206020601f85010481019160208510610b2f57601f60209101040190614992565b88611b84565b90508301518a611b41565b6001890160005260206000209060005b601f1984168110611e4e57509160029160019382601f19811610611e33575b505002016001880155611b5d565b8501516008601f841602840a60001904191690558a80611e25565b90916020600181928588015181550193019101611e06565b611e969060018a0160005260206000206020601f85010481019160208510610b2f57601f60209101040190614992565b88611b25565b015190508a80610850565b908360005260206000209160005b601f1985168110611efc5750918391600293600195601f19811610611ee1575b50505002019055611a42565b01516008601f841602840a60001904191690558a8080611ed5565b91926020600181928685015181550194019201611eb5565b611f41908460005260206000206020601f86010481019160208610610b2f57601f60209101040190614992565b89611a0c565b600190611f79610717611f6960208d81604051938285809451938492016146e3565b810160098152030190208a61484a565b87600052602052600b6040600020018160005260205289611fce610763611fbe6020600160a060020a03604060002054169481604051938285809451938492016146e3565b810160098152030190208b61484a565b88600052602052600b60406000200182600052602052826040600020015490600052600860205260406000209060005260205261202c600360406000206000815561201a8582016149d4565b612026600282016149d4565b016149d4565b61204b610717611f6960208d81604051938285809451938492016146e3565b87600052602052600b60406000200181600052602052612082600360406000206000815560008582015560006002820155016149d4565b01611978565b3461027a57604036600319011261027a57600160a060020a036120a96145c9565b1660005260066020526040600020602435600052602052604060002080546102766120d66001840161463f565b926120ef60036120e86002840161463f565b920161463f565b906040519485948561472b565b3461027a57604061215961210f366147c1565b919293906102a2865194611c3f87805161213a6107178a6020809c81809701956107078183896146e3565b886000528252600c8b6000200154998b519384928392519283916146e3565b9060005281526005836000200154908351928352820152f35b3461027a57600036600319011261027a57602061030b6149a9565b3461027a576102a26102a26121a46102963661491c565b90600052602052600b60406000200190600052602052600160a060020a0360406000205416600052600a6020526102766116e8600160406000200161463f565b3461027a5760a036600319011261027a5767ffffffffffffffff60043581811161027a5761221690369060040161476a565b602491823581811161027a5761223090369060040161476a565b9160443582811161027a5761224990369060040161476a565b60643583811161027a5761226190369060040161476a565b9360843584811161027a5761227a90369060040161476a565b9433600052602090600a82526040600020906001948583018751898111612640576122a582546145df565b98601f998a8111612775575b5086908a831160011461270e576122e2929160009183612658575050816002029160080260020a6000190419161790565b90555b600294858401908051908a82116126f65761230083546145df565b8a81116126ca575b5086908a831160011461266357612339929160009183612658575050816002029160080260020a6000190419161790565b90555b805160038401918982116126405761235483546145df565b898111612614575b5085908983116001146125ad5761238d9291600091836124f2575050816002029160080260020a6000190419161790565b90555b80516004830191888211612595576123a883546145df565b888111612569575b5084908883116001146124fd5791806123e69260059695946000926124f2575050816002029160080260020a6000190419161790565b90555b019686519586116124db57506123ff87546145df565b8481116124a5575b50809380861160011461243c575050505081906113899360009261138d575050816002029160080260020a6000190419161790565b91949390929584601f1981168960005285600020956000905b8a83831061248b5750505010612470575b5050505002019055005b0151908316600802840a600019041916905584808080612466565b858701518955909701969485019488935090810190612455565b6124cc908860005282600020838781818b0104830193828b106124d2575b01040190614992565b87612407565b935082936124c3565b60e060020a634e487b710260005260416004526000fd5b015190508d80610850565b87919493928791601f1982169685600052886000209160005b8a8a82106125505750508360059910612536575b505050020190556123e9565b01516008838d1602840a60001904191690558d808061252a565b8383015185558d978d9750909401939283019201612516565b61258f908460005286600020878b81818801048301938288106124d25701040190614992565b8b6123b0565b8a60e060020a634e487b710260005260416004526000fd5b9188928892601f1983169186600052896000209260005b8b8282106125fb57505084116125e1575b50505002019055612390565b01516008838d1602840a60001904191690558d80806125d5565b8484015186558e988e98509095019493840193016125c4565b61263a908460005287600020888c81818801048301938288106124d25701040190614992565b8c61235c565b8b60e060020a634e487b710260005260416004526000fd5b015190508e80610850565b9189928992601f19831691866000528a6000209260005b8c8282106126b15750508411612697575b5050500201905561233c565b01516008838e1602840a60001904191690558e808061268b565b8484015186558f988f985090950194938401930161267a565b6126f0908460005288600020898d81818801048301938288106124d25701040190614992565b8d612308565b8c60e060020a634e487b710260005260416004526000fd5b918991601f1982169085600052896000209160005b8b82821061275f57505094836002959610612745575b505050020190556122e5565b01516008838e1602840a60001904191690558e8080612739565b8388015185558e96909401939283019201612723565b61279b908460005288600020898d81818801048301938288106124d25701040190614992565b8d6122b1565b3461027a5761016036600319011261027a576127bb6145c9565b60243567ffffffffffffffff811161027a576127db90369060040161476a565b9060443567ffffffffffffffff811161027a576127fc90369060040161476a565b9060643567ffffffffffffffff811161027a5761281d90369060040161476a565b60843567ffffffffffffffff811161027a5761283d90369060040161476a565b9160a43567ffffffffffffffff811161027a5761285e90369060040161476a565b9060c43567ffffffffffffffff811161027a5761287f90369060040161476a565b9260e43567ffffffffffffffff811161027a576128a090369060040161476a565b966101043567ffffffffffffffff811161027a576128c290369060040161476a565b966101243567ffffffffffffffff811161027a576128e490369060040161476a565b916101443567ffffffffffffffff811161027a5761290690369060040161476a565b91600160a060020a038616600052600560205260406000209461292a600254614983565b600255855473ffffffffffffffffffffffffffffffffffffffff1916600160a060020a03881617865580519067ffffffffffffffff8211610b395761297260018801546145df565b601f811161336f575b50602090601f83116001146132fc576129ae929160009183612658575050816002029160080260020a6000190419161790565b60018601555b80519067ffffffffffffffff8211610b39576129d360028701546145df565b601f81116132c6575b50602090601f831160011461325357612a0f9291600091836124f2575050816002029160080260020a6000190419161790565b60028501555b80519067ffffffffffffffff8211610b3957612a3460038601546145df565b601f811161321d575b50602090601f83116001146131aa57612a70929160009183610e0f575050816002029160080260020a6000190419161790565b60038401555b600560068401556001600784015580519067ffffffffffffffff8211610b3957612aa360058501546145df565b601f8111613174575b50602090601f831160011461310157612adf929160009183610cb2575050816002029160080260020a6000190419161790565b60058301555b80519067ffffffffffffffff8211610b3957612b0460048401546145df565b601f81116130cb575b50602090601f831160011461304e5782600160a060020a03959493600493612b4d93600092610e0f575050816002029160080260020a6000190419161790565b9101555b16600052600a602052604060002092600184019080519067ffffffffffffffff8211610b3957612b8183546145df565b601f811161301b575b50602090601f8311600114612fb057612bbd92916000918361158a575050816002029160080260020a6000190419161790565b90555b8051600284019167ffffffffffffffff8211610b3957612be083546145df565b601f8111612f7d575b50602090601f8311600114612f1257612c1c929160009183610b52575050816002029160080260020a6000190419161790565b90555b8051600383019167ffffffffffffffff8211610b3957612c3f83546145df565b601f8111612edf575b50602090601f8311600114612e7457612c7b929160009183611436575050816002029160080260020a6000190419161790565b90555b60048101835167ffffffffffffffff8111610b3957612c9d82546145df565b601f8111612e41575b506020601f8211600114612dd4579080612cdc9260059697600092611436575050816002029160080260020a6000190419161790565b90555b019080519067ffffffffffffffff8211610b3957612cfd83546145df565b601f8111612da1575b50602090601f8311600114612d395761138992916000918361138d575050816002029160080260020a6000190419161790565b90601f198316918460005260206000209260005b818110612d8957509160029391856001969410612d6e575b50505002019055005b01516008601f841602840a6000190419169055848080612d65565b92936020600181928786015181550195019301612d4d565b612dce908460005260206000206020601f86010481019160208610610b2f57601f60209101040190614992565b83612d06565b601f198216958360005260206000209660005b818110612e2957509660029284926001956005999a10612e0e575b50505002019055612cdf565b01516008601f841602840a6000190419169055878080612e02565b83830151895560019098019760209384019301612de7565b612e6e908360005260206000206020601f85010481019160208510610b2f57601f60209101040190614992565b85612ca6565b90601f198316918460005260206000209260005b818110612ec757509160029391856001969410612eac575b50505002019055612c7e565b01516008601f841602840a6000190419169055878080612ea0565b92936020600181928786015181550195019301612e88565b612f0c908460005260206000206020601f86010481019160208610610b2f57601f60209101040190614992565b86612c48565b90601f198316918460005260206000209260005b818110612f6557509160029391856001969410612f4a575b50505002019055612c1f565b01516008601f841602840a6000190419169055888080612f3e565b92936020600181928786015181550195019301612f26565b612faa908460005260206000206020601f86010481019160208610610b2f57601f60209101040190614992565b87612be9565b90601f198316918460005260206000209260005b81811061300357509160029391856001969410612fe8575b50505002019055612bc0565b01516008601f841602840a6000190419169055898080612fdc565b92936020600181928786015181550195019301612fc4565b613048908460005260206000206020601f86010481019160208610610b2f57601f60209101040190614992565b88612b8a565b906004840160005260206000209160005b601f19851681106130b3575083600493600193600293600160a060020a03999897601f19811610613098575b5050500201910155612b51565b01516008601f841602840a60001904191690558c808061308b565b9192602060018192868501518155019401920161305f565b6130fb906004850160005260206000206020601f86010481019160208610610b2f57601f60209101040190614992565b89612b0d565b906005850160005260206000209160005b601f198516811061315c5750918391600293600195601f19811610613141575b50505002016005830155612ae5565b01516008601f841602840a60001904191690558b8080613132565b91926020600181928685015181550194019201613112565b6131a4906005860160005260206000206020601f86010481019160208610610b2f57601f60209101040190614992565b8a612aac565b906003860160005260206000209160005b601f19851681106132055750918391600293600195601f198116106131ea575b50505002016003840155612a76565b01516008601f841602840a60001904191690558c80806131db565b919260206001819286850151815501940192016131bb565b61324d906003870160005260206000206020601f86010481019160208610610b2f57601f60209101040190614992565b8b612a3d565b906002870160005260206000209160005b601f19851681106132ae5750918391600293600195601f19811610613293575b50505002016002850155612a15565b01516008601f841602840a60001904191690558d8080613284565b91926020600181928685015181550194019201613264565b6132f6906002880160005260206000206020601f86010481019160208610610b2f57601f60209101040190614992565b8c6129dc565b906001880160005260206000209160005b601f19851681106133575750918391600293600195601f1981161061333c575b505050020160018601556129b4565b01516008601f841602840a60001904191690558e808061332d565b9192602060018192868501518155019401920161330d565b61339f906001890160005260206000206020601f86010481019160208610610b2f57601f60209101040190614992565b8d61297b565b3461027a576102a26102a26133bc6102963661491c565b90600052602052600b604060002001906000526020526102766116e8600360406000200161463f565b3461027a576102a26134066102a26133fc366147c1565b9592939093614824565b90600052602052602060ff600a60406000200154166040519015158152f35b3461027a57600036600319011261027a576020600254604051908152f35b3461027a57604036600319011261027a5761345c6145c9565b600160a060020a03809116600052600760205260406000206024356000526020526040600020908154906134f16134956001850161463f565b936134e36134a56002830161463f565b9360046134b46003850161463f565b93015416936134d5604051978897885260a0602089015260a0880190614706565b908682036040880152614706565b908482036060860152614706565b9060808301520390f35b3461027a5761012036600319011261027a576135156145c9565b60243567ffffffffffffffff811161027a5761353590369060040161476a565b9060443567ffffffffffffffff811161027a5761355690369060040161476a565b9060643567ffffffffffffffff811161027a5761357790369060040161476a565b60843567ffffffffffffffff811161027a5761359790369060040161476a565b9160a43567ffffffffffffffff811161027a576135b890369060040161476a565b9060c43567ffffffffffffffff811161027a576135d990369060040161476a565b9260e43567ffffffffffffffff811161027a576135fa90369060040161476a565b966101043567ffffffffffffffff811161027a5761361c90369060040161476a565b96600160a060020a0384166000526004602052604060002092613640600154614983565b600155835473ffffffffffffffffffffffffffffffffffffffff1916600160a060020a03861617845580519067ffffffffffffffff8211610b395761368860018601546145df565b601f8111613e47575b50602090601f8311600114613dd4576136c4929160009183610e0f575050816002029160080260020a6000190419161790565b60018401555b80519067ffffffffffffffff8211610b39576136e960028501546145df565b601f8111613d9e575b50602090601f8311600114613d2b57613725929160009183610cb2575050816002029160080260020a6000190419161790565b60028301555b80519067ffffffffffffffff8211610b395761374a60038401546145df565b601f8111613cf5575b50602090601f8311600114613c785782600160a060020a0395949360039361379393600092610e0f575050816002029160080260020a6000190419161790565b9101555b16600052600a602052604060002092600184019080519067ffffffffffffffff8211610b39576137c783546145df565b601f8111613c45575b50602090601f8311600114613bda5761380392916000918361158a575050816002029160080260020a6000190419161790565b90555b8051600284019167ffffffffffffffff8211610b395761382683546145df565b601f8111613ba7575b50602090601f8311600114613b3c57613862929160009183610b52575050816002029160080260020a6000190419161790565b90555b8051600383019167ffffffffffffffff8211610b395761388583546145df565b601f8111613b09575b50602090601f8311600114613a9e576138c1929160009183611436575050816002029160080260020a6000190419161790565b90555b60048101835167ffffffffffffffff8111610b39576138e382546145df565b601f8111613a6b575b506020601f82116001146139fe5790806139229260059697600092611436575050816002029160080260020a6000190419161790565b90555b019080519067ffffffffffffffff8211610b395761394383546145df565b601f81116139cb575b50602090601f831160011461397f5761138992916000918361138d575050816002029160080260020a6000190419161790565b90601f198316918460005260206000209260005b8181106139b357509160029391856001969410612d6e5750505002019055005b92936020600181928786015181550195019301613993565b6139f8908460005260206000206020601f86010481019160208610610b2f57601f60209101040190614992565b8361394c565b601f198216958360005260206000209660005b818110613a5357509660029284926001956005999a10613a38575b50505002019055613925565b01516008601f841602840a6000190419169055878080613a2c565b83830151895560019098019760209384019301613a11565b613a98908360005260206000206020601f85010481019160208510610b2f57601f60209101040190614992565b856138ec565b90601f198316918460005260206000209260005b818110613af157509160029391856001969410613ad6575b505050020190556138c4565b01516008601f841602840a6000190419169055878080613aca565b92936020600181928786015181550195019301613ab2565b613b36908460005260206000206020601f86010481019160208610610b2f57601f60209101040190614992565b8661388e565b90601f198316918460005260206000209260005b818110613b8f57509160029391856001969410613b74575b50505002019055613865565b01516008601f841602840a6000190419169055888080613b68565b92936020600181928786015181550195019301613b50565b613bd4908460005260206000206020601f86010481019160208610610b2f57601f60209101040190614992565b8761382f565b90601f198316918460005260206000209260005b818110613c2d57509160029391856001969410613c12575b50505002019055613806565b01516008601f841602840a6000190419169055898080613c06565b92936020600181928786015181550195019301613bee565b613c72908460005260206000206020601f86010481019160208610610b2f57601f60209101040190614992565b886137d0565b906003840160005260206000209160005b601f1985168110613cdd575083600393600193600293600160a060020a03999897601f19811610613cc2575b5050500201910155613797565b01516008601f841602840a60001904191690558c8080613cb5565b91926020600181928685015181550194019201613c89565b613d25906003850160005260206000206020601f86010481019160208610610b2f57601f60209101040190614992565b89613753565b906002850160005260206000209160005b601f1985168110613d865750918391600293600195601f19811610613d6b575b5050500201600283015561372b565b01516008601f841602840a60001904191690558b8080613d5c565b91926020600181928685015181550194019201613d3c565b613dce906002860160005260206000206020601f86010481019160208610610b2f57601f60209101040190614992565b8a6136f2565b906001860160005260206000209160005b601f1985168110613e2f5750918391600293600195601f19811610613e14575b505050020160018401556136ca565b01516008601f841602840a60001904191690558c8080613e05565b91926020600181928685015181550194019201613de5565b613e77906001870160005260206000206020601f86010481019160208610610b2f57601f60209101040190614992565b8b613691565b3461027a57600036600319011261027a5733600052613f2f6020600a8152610276613eae600160406000200161463f565b9133600052600a8152613f58613eca600260406000200161463f565b9133600052600a8152613f4a613ee6600360406000200161463f565b33600052600a8352613f3c613f01600460406000200161463f565b9333600052600a8152613f1a600560406000200161463f565b966040519a8b9a60a08c5260a08c0190614706565b918a8303908b0152614706565b908782036040890152614706565b908582036060870152614706565b908382036080850152614706565b3461027a5760208060031936011261027a576004353360005260068252604060002081600052825261027660406000205433600052600684526040600020836000528452613fba600160406000200161463f565b9233600052600685526040600020816000528552613fde600260406000200161463f565b9433600052600681526040600020916000525261026a600360406000200161463f565b3461027a57600036600319011261027a5733600052600a6020526040806000206007600682015491015482519182526020820152f35b3461027a5760208060031936011261027a576004359033600052600681526040600020826000528152614070600160406000200161463f565b9133600052600682526040600020816000528252614094600260406000200161463f565b336000526006835260406000208260005283526140b7600360406000200161463f565b913360005260068452604060002090600052835260406000205493604051906140f66140f082519387818186019661189081838a6146e3565b8561484a565b86600052855260ff600a60406000200154166141465791611c3f856102a29361412b96956040519384928392519283916146e3565b6000928352905260409020600a01805460ff19166001179055005b6084856040519060e560020a62461bcd0282526004820152602160248201527f50726f706572747920616c7265616479206d61726b656420617661696c61626c60448201527f65000000000000000000000000000000000000000000000000000000000000006064820152fd5b3461027a57602036600319011261027a57600160a060020a03806141d56145c9565b1660005260046020526040600020908154166102766141f66001840161463f565b9261423d614212600361420b6002850161463f565b930161463f565b9161422f6040519687968752608060208801526080870190614706565b908582036040870152614706565b908382036060850152614706565b3461027a576102a26102a26142626102963661491c565b90600052602052600b604060002001906000526020526020600160a060020a0360406000205416604051908152f35b3461027a5760208060031936011261027a5760043533600052600882526040600020816000528252610276604060002054336000526008845260406000208360005284526142e5600160406000200161463f565b9233600052600885526040600020816000528552614309600260406000200161463f565b9433600052600881526040600020916000525261026a600360406000200161463f565b3461027a57600036600319011261027a576020600160a060020a0360005416604051908152f35b3461027a57602036600319011261027a57600160a060020a03806143756145c9565b1660005260056020526040600020908154166102766143966001840161463f565b926143a36002820161463f565b906143b06003820161463f565b6143bc6004830161463f565b6143c86005840161463f565b91600760068501549401549460405198899889614870565b3461027a57602036600319011261027a57600160a060020a036144016145c9565b1660005260056020526102766116e8600460406000200161463f565b3461027a57602036600319011261027a57600160a060020a038061443f6145c9565b16600052600a6020526040600020908154166102766143966001840161463f565b3461027a57611c3f61449260206102a2614479366147c1565b96919285604096929651938285809451938492016146e3565b906000526020526040600020600160a060020a039081815416906144b86001820161463f565b926144c56002830161463f565b90600383015416916144d96004820161463f565b600582015493600683015460078401549061454b60ff60088701541693600987015495614538600c60ff600a8b0154169901549961452a6040519e8f9e8f6101809181528160208201520190614706565b8d810360408f015290614706565b9160608c01528a820360808c0152614706565b9660a089015260c088015260e0870152151561010086015261012085015215156101408401526101608301520390f35b3461027a57604036600319011261027a57600160a060020a0361459c6145c9565b1660005260086020526040600020602435600052602052604060002080546102766120d66001840161463f565b60043590600160a060020a038216820361027a57565b9060016002830492168015614613575b60208310146145fa57565b60e060020a634e487b7102600052602260045260246000fd5b91607f16916145ef565b90601f8019910116810190811067ffffffffffffffff821117610b3957604052565b90604051918260008254614652816145df565b908184526020946001916001811690816000146146c25750600114614683575b5050506146819250038361461d565b565b600090815285812095935091905b8183106146aa5750506146819350820101388080614672565b85548884018501529485019487945091830191614691565b9250505061468194925060ff19168284015215158102820101388080614672565b60005b8381106146f65750506000910152565b81810151838201526020016146e6565b9060209161471f815180928185528580860191016146e3565b601f01601f1916010190565b9261474b6147679593614759938652608060208701526080860190614706565b908482036040860152614706565b916060818403910152614706565b90565b81601f8201121561027a5780359067ffffffffffffffff8211610b39576040519261479f601f8401601f19166020018561461d565b8284526020838301011161027a57816000926020809301838601378301015290565b608060031982011261027a5767ffffffffffffffff9160043583811161027a57826147ee9160040161476a565b9260243581811161027a57836148069160040161476a565b9260443591821161027a5761481d9160040161476a565b9060643590565b602061483d9181604051938285809451938492016146e3565b8101600981520301902090565b6020906148649282604051948386809551938492016146e3565b82019081520301902090565b94906148e1946148b760e098956148a96148d3966148c5959e9d9c9e600160a060020a0361010091168c528060208d01528b0190614706565b9089820360408b0152614706565b908782036060890152614706565b908582036080870152614706565b9083820360a0850152614706565b9460c08201520152565b9493926134d56060936149096149179460808a5260808a0190614706565b9088820360208a0152614706565b930152565b60a060031982011261027a5767ffffffffffffffff9160043583811161027a57826149499160040161476a565b9260243581811161027a57836149619160040161476a565b9260443591821161027a576149789160040161476a565b906064359060843590565b600019811461177b5760010190565b81811061499d575050565b60008155600101614992565b33600052600460205233600160a060020a0360406000205416146000146149cf57600190565b600090565b6149de81546145df565b90816149e8575050565b81601f600093116001146149fa575055565b908083918252614a186020601f818520950104840160018501614992565b5555565b600092918154614a2b816145df565b92600191808316908115614a855750600114614a48575b50505050565b9091929394506000526020906020600020906000915b858310614a745750505050019038808080614a42565b805485840152918301918101614a5e565b60ff1916845250505081151590910201915038808080614a42565b33600052600560205233600160a060020a0360406000205416146000146149cf57600190565b9291614ae8906102a26040936040516020818951611c3f818385809e016146e3565b60009283526020526040822090600c8201548015614b425791600b01835b838110614b165750505050905090565b80855281865233600160a060020a03848720541614614b3757600101614b06565b505050505050600190565b50505090509056fea26469706673582212202ed5625ec1baae387787adb162e88bd5ab5295b916469216615582b9fbed613264736f6c63430008170033",
  "immutableReferences": {},
  "source": "// SPDX-License-Identifier: MIT\n\npragma solidity >=0.5.0 <0.9.0;\n\ncontract Registry {\n    address public superAdmin;\n    uint256 public totalAdmins;\n    uint256 public totalVendors;\n    uint256 public totalTendors = 1000;\n\n    struct Admin {\n        address adminAddress;\n        string city;\n        string district;\n        string state;\n    }\n\n    struct Vendor {\n        address vendorAddress;\n        string city;\n        string district;\n        string state;\n        string year;\n        string vendortype;\n        uint256 rating;\n        uint256 noofRaters;\n    }\n\n    struct LandDetails {\n        address owner;\n        string tendertype;\n        string tenderName;\n        address admin;\n        string ipfsuri;\n        uint256 propertyId;\n        uint256 surveyNumber;\n        uint256 index;\n        bool registered;\n        uint256 marketValue;\n        bool markAvailable;\n        mapping(uint256 => RequestDetails) requests; // reqNo => RequestDetails\n        uint256 noOfRequests; // other users requested to this land\n    }\n\n    struct UserProfile {\n        address userAddr;\n        string fullName;\n        string gender;\n        string email;\n        string contact;\n        string residentialAddr;\n        uint256 totalIndices;\n        uint256 requestIndices; // this user requested to other lands\n    }\n\n    struct OwnerOwns {\n        uint256 surveyNumber;\n        string state;\n        string district;\n        string city;\n    }\n\n    struct AdminOwns {\n        uint256 surveyNo;\n        string state;\n        string district;\n        string city;\n        address AllocatedTo;\n    }\n\n    struct RequestedLands {\n        uint256 surveyNumber;\n        string state;\n        string district;\n        string city;\n    }\n\n    struct RequestDetails {\n        address whoRequested;\n        uint256 reqIndex;\n        uint256 BidAmount;\n        string FileURI;\n    }\n\n    mapping(address => Admin) public admins;\n    mapping(address => Vendor) public vendors;\n    mapping(address => mapping(uint256 => OwnerOwns)) public ownerMapsProperty;\n    mapping(address => mapping(uint256 => AdminOwns)) public adminMapsProperty; // ownerAddr => index no. => OwnerOwns\n    mapping(address => mapping(uint256 => RequestedLands))\n        public requestedLands; // ownerAddr => reqIndex => RequestedLands\n    mapping(string => mapping(string => mapping(string => mapping(uint256 => LandDetails))))\n        public landDetalsMap; // state => district => city => surveyNo => LandDetails\n    mapping(address => UserProfile) public userProfile;\n\n    constructor() {\n        superAdmin = msg.sender;\n    }\n\n    modifier onlyAdmin() {\n        require(\n            admins[msg.sender].adminAddress == msg.sender,\n            \"Only admin can Register land\"\n        );\n        _;\n    }\n\n    // SuperAdmin: Registers new admin\n    function addAdmin(\n        address _adminAddr,\n        string memory _state,\n        string memory _district,\n        string memory _city,\n        string memory _fullName,\n        string memory _gender,\n        string memory _email,\n        string memory _contact,\n        string memory _residentialAddr\n    ) external {\n        Admin storage newAdmin = admins[_adminAddr];\n        totalAdmins++;\n\n        newAdmin.adminAddress = _adminAddr;\n        newAdmin.city = _city;\n        newAdmin.district = _district;\n        newAdmin.state = _state;\n\n        UserProfile storage newUserProfile = userProfile[_adminAddr];\n\n        newUserProfile.fullName = _fullName;\n        newUserProfile.gender = _gender;\n        newUserProfile.email = _email;\n        newUserProfile.contact = _contact;\n        newUserProfile.residentialAddr = _residentialAddr;\n    }\n\n    function addVendor(\n        address _vendorAddr,\n        string memory _state,\n        string memory _district,\n        string memory _city,\n        string memory _fullName,\n        string memory _gender,\n        string memory _email,\n        string memory _contact,\n        string memory _residentialAddr,\n        string memory _year,\n        string memory _vendortype\n    ) external {\n        Vendor storage newVendor = vendors[_vendorAddr];\n        totalVendors++;\n\n        newVendor.vendorAddress = _vendorAddr;\n        newVendor.city = _city;\n        newVendor.district = _district;\n        newVendor.state = _state;\n        newVendor.rating = 5;\n        newVendor.noofRaters = 1;\n        newVendor.vendortype = _vendortype;\n        newVendor.year = _year;\n\n        UserProfile storage newUserProfile = userProfile[_vendorAddr];\n\n        newUserProfile.fullName = _fullName;\n        newUserProfile.gender = _gender;\n        newUserProfile.email = _email;\n        newUserProfile.contact = _contact;\n        newUserProfile.residentialAddr = _residentialAddr;\n    }\n\n    //function Give Rating\n    function GiveRating(address _vendortorating, uint256 _ratenumber) public {\n        vendors[_vendortorating].rating =\n            vendors[_vendortorating].rating +\n            _ratenumber;\n        vendors[_vendortorating].noofRaters++;\n    }\n\n    // check if it is admin\n    function isAdmin() external view returns (bool) {\n        if (admins[msg.sender].adminAddress == msg.sender) {\n            return true;\n        } else return false;\n    }\n\n    //Chekc if it is Vendor\n    function isVendor() external view returns (bool) {\n        if (vendors[msg.sender].vendorAddress == msg.sender) {\n            return true;\n        } else return false;\n    }\n\n    // Admin: registers land\n    function registerLand(\n        string memory _state,\n        string memory _district,\n        string memory _city,\n        uint256 _propertyId,\n        uint256 _surveyNo,\n        address _owner,\n        uint256 _marketValue,\n        string memory _tenderName,\n        string memory _tendertype,\n        string memory _ipfsuri\n    ) external onlyAdmin {\n        require(\n            keccak256(abi.encodePacked(admins[msg.sender].state)) ==\n                keccak256(abi.encodePacked(_state)) &&\n                keccak256(abi.encodePacked(admins[msg.sender].district)) ==\n                keccak256(abi.encodePacked(_district)) &&\n                keccak256(abi.encodePacked(admins[msg.sender].city)) ==\n                keccak256(abi.encodePacked(_city)),\n            \"Admin can only register land of same city.\"\n        );\n\n        require(\n            landDetalsMap[_state][_district][_city][totalTendors].registered ==\n                false,\n            \"Survey Number already registered!\"\n        );\n\n        LandDetails storage newLandRegistry = landDetalsMap[_state][_district][\n            _city\n        ][totalTendors];\n\n        OwnerOwns storage newOwnerOwns = ownerMapsProperty[msg.sender][\n            userProfile[msg.sender].totalIndices\n        ];\n\n        AdminOwns storage newAdminOwns = adminMapsProperty[msg.sender][\n            userProfile[msg.sender].totalIndices\n        ];\n\n        newLandRegistry.owner = _owner;\n        newLandRegistry.admin = msg.sender;\n        newLandRegistry.propertyId = totalTendors;\n        newLandRegistry.surveyNumber = totalTendors;\n        newLandRegistry.index = userProfile[_owner].totalIndices;\n        newLandRegistry.registered = true;\n        newLandRegistry.marketValue = _marketValue;\n        newLandRegistry.markAvailable = true;\n        newLandRegistry.tenderName = _tenderName;\n        newLandRegistry.tendertype = _tendertype;\n        newLandRegistry.ipfsuri = _ipfsuri;\n\n        newOwnerOwns.surveyNumber = totalTendors;\n        newOwnerOwns.state = _state;\n        newOwnerOwns.district = _district;\n        newOwnerOwns.city = _city;\n\n        userProfile[_owner].totalIndices++;\n\n        totalTendors++;\n    }\n\n    // User_1: set user profile\n    function setUserProfile(\n        string memory _fullName,\n        string memory _gender,\n        string memory _email,\n        string memory _contact,\n        string memory _residentialAddr\n    ) public {\n        UserProfile storage newUserProfile = userProfile[msg.sender];\n\n        newUserProfile.fullName = _fullName;\n        newUserProfile.gender = _gender;\n        newUserProfile.email = _email;\n        newUserProfile.contact = _contact;\n        newUserProfile.residentialAddr = _residentialAddr;\n    }\n\n    // User_1: mark property available\n    function markMyPropertyAvailable(uint256 indexNo) external {\n        string memory state = ownerMapsProperty[msg.sender][indexNo].state;\n        string memory district = ownerMapsProperty[msg.sender][indexNo]\n            .district;\n        string memory city = ownerMapsProperty[msg.sender][indexNo].city;\n        uint256 surveyNumber = ownerMapsProperty[msg.sender][indexNo]\n            .surveyNumber;\n\n        require(\n            landDetalsMap[state][district][city][surveyNumber].markAvailable ==\n                false,\n            \"Property already marked available\"\n        );\n\n        landDetalsMap[state][district][city][surveyNumber].markAvailable = true;\n    }\n\n    // User_2: Request for buy  ownerAddress & index = arguements\n    function RequestForBuy(\n        string memory _state,\n        string memory _district,\n        string memory _city,\n        uint256 _surveyNo,\n        uint256 _BidAmount,\n        string memory _FileURI\n    ) external {\n        LandDetails storage thisLandDetail = landDetalsMap[_state][_district][\n            _city\n        ][_surveyNo];\n        require(\n            thisLandDetail.markAvailable == true,\n            \"This property is NOT marked for sale!\"\n        );\n\n        uint256 req_serialNum = thisLandDetail.noOfRequests;\n        thisLandDetail.requests[req_serialNum].whoRequested = msg.sender;\n        thisLandDetail.requests[req_serialNum].reqIndex = userProfile[\n            msg.sender\n        ].requestIndices;\n        thisLandDetail.requests[req_serialNum].BidAmount = _BidAmount;\n        thisLandDetail.requests[req_serialNum].FileURI = _FileURI;\n        thisLandDetail.noOfRequests++;\n\n        // adding requested land to user_2 profile\n        RequestedLands storage newReqestedLands = requestedLands[msg.sender][\n            userProfile[msg.sender].requestIndices\n        ];\n        newReqestedLands.surveyNumber = _surveyNo;\n        newReqestedLands.state = _state;\n        newReqestedLands.district = _district;\n        newReqestedLands.city = _city;\n\n        userProfile[msg.sender].requestIndices++;\n    }\n\n    // User_1: Accept the buy request; sell.\n    function AcceptRequest(uint256 _index, uint256 _reqNo) public {\n        uint256 _surveyNo = ownerMapsProperty[msg.sender][_index].surveyNumber;\n        string memory _state = ownerMapsProperty[msg.sender][_index].state;\n        string memory _district = ownerMapsProperty[msg.sender][_index]\n            .district;\n        string memory _city = ownerMapsProperty[msg.sender][_index].city;\n\n        // updating LandDetails\n        address newOwner = landDetalsMap[_state][_district][_city][_surveyNo]\n            .requests[_reqNo]\n            .whoRequested;\n\n        uint256 newOwner_reqIndex = landDetalsMap[_state][_district][_city][\n            _surveyNo\n        ].requests[_reqNo].reqIndex;\n\n        uint256 noOfReq = landDetalsMap[_state][_district][_city][_surveyNo]\n            .noOfRequests;\n\n        string memory _FileURI = landDetalsMap[_state][_district][_city][\n                _surveyNo\n            ].requests[_reqNo].FileURI;\n\n        uint256 _BidAmount = landDetalsMap[_state][_district][_city][\n                _surveyNo\n            ].requests[_reqNo].BidAmount;\n\n        // deleting requested land from all requesters AND removing all incoming requests\n        for (uint256 i = 0; i < noOfReq; i++) {\n            address requesterAddr = landDetalsMap[_state][_district][_city][\n                _surveyNo\n            ].requests[i].whoRequested;\n            uint256 requester_reqIndx = landDetalsMap[_state][_district][_city][\n                _surveyNo\n            ].requests[i].reqIndex;\n\n            delete requestedLands[requesterAddr][requester_reqIndx];\n            delete landDetalsMap[_state][_district][_city][_surveyNo].requests[\n                i\n            ];\n        }\n        \n        \n\n        landDetalsMap[_state][_district][_city][_surveyNo].owner = newOwner;\n        landDetalsMap[_state][_district][_city][_surveyNo].ipfsuri = _FileURI;\n        landDetalsMap[_state][_district][_city][_surveyNo].marketValue = _BidAmount;\n        landDetalsMap[_state][_district][_city][_surveyNo]\n            .markAvailable = false;\n        landDetalsMap[_state][_district][_city][_surveyNo].noOfRequests = 0;\n\n        // deleting property from user_1's ownerMapsProperty\n        // delete ownerMapsProperty[msg.sender][_index];\n\n        // adding ownerMapsProperty for newOwner\n        uint256 newOwnerTotProp = userProfile[newOwner].totalIndices;\n        OwnerOwns storage newOwnerOwns = ownerMapsProperty[newOwner][\n            newOwnerTotProp\n        ];\n\n        newOwnerOwns.surveyNumber = _surveyNo;\n        newOwnerOwns.state = _state;\n        newOwnerOwns.district = _district;\n        newOwnerOwns.city = _city;\n\n        landDetalsMap[_state][_district][_city][_surveyNo]\n            .index = newOwnerTotProp;\n\n        userProfile[newOwner].totalIndices++;\n    }\n\n    //******* GETTERS **********\n\n    // return land details\n    function getLandDetails(\n        string memory _state,\n        string memory _district,\n        string memory _city,\n        uint256 _surveyNo\n    )\n        external\n        view\n        returns (\n            address,\n            uint256,\n            uint256,\n            uint256,\n            string memory,\n            string memory,\n            string memory\n        )\n    {\n        address owner = landDetalsMap[_state][_district][_city][_surveyNo]\n            .owner;\n        uint256 propertyid = landDetalsMap[_state][_district][_city][_surveyNo]\n            .propertyId;\n        uint256 indx = landDetalsMap[_state][_district][_city][_surveyNo].index;\n\n        uint256 mv = landDetalsMap[_state][_district][_city][_surveyNo]\n            .marketValue;\n\n        string memory tendorName = landDetalsMap[_state][_district][_city][\n            _surveyNo\n        ].tenderName;\n\n        string memory tendortype = landDetalsMap[_state][_district][_city][\n            _surveyNo\n        ].tendertype;\n\n        string memory ipfsuri = landDetalsMap[_state][_district][_city][\n            _surveyNo\n        ].ipfsuri;\n\n        return (owner, propertyid, indx, mv, tendorName, tendortype, ipfsuri);\n    }\n\n    function getRequestCnt_propId(\n        string memory _state,\n        string memory _district,\n        string memory _city,\n        uint256 _surveyNo\n    ) external view returns (uint256, uint256) {\n        uint256 _noOfRequests = landDetalsMap[_state][_district][_city][\n            _surveyNo\n        ].noOfRequests;\n        uint256 _propertyId = landDetalsMap[_state][_district][_city][_surveyNo]\n            .propertyId;\n        return (_noOfRequests, _propertyId);\n    }\n\n    function getRequesterDetail(\n        string memory _state,\n        string memory _district,\n        string memory _city,\n        uint256 _surveyNo,\n        uint256 _reqIndex\n    ) external view returns (address) {\n        address requester = landDetalsMap[_state][_district][_city][_surveyNo]\n            .requests[_reqIndex]\n            .whoRequested;\n\n        return (requester);\n    }\n\n    function getRequesterBidAmount(\n        string memory _state,\n        string memory _district,\n        string memory _city,\n        uint256 _surveyNo,\n        uint256 _reqIndex\n    ) external view returns (uint256) {\n        uint256 BidAmount = landDetalsMap[_state][_district][_city][_surveyNo]\n            .requests[_reqIndex]\n            .BidAmount;\n\n        return (BidAmount);\n    }\n\n    function getRequesterFileURI(\n        string memory _state,\n        string memory _district,\n        string memory _city,\n        uint256 _surveyNo,\n        uint256 _reqIndex\n    ) external view returns (string memory) {\n        string memory RequesterFileURI = landDetalsMap[_state][_district][\n            _city\n        ][_surveyNo].requests[_reqIndex].FileURI;\n\n        return (RequesterFileURI);\n    }\n\n    function getRequesterName(\n        string memory _state,\n        string memory _district,\n        string memory _city,\n        uint256 _surveyNo,\n        uint256 _reqIndex\n    ) external view returns (string memory) {\n        address requester = landDetalsMap[_state][_district][_city][_surveyNo]\n            .requests[_reqIndex]\n            .whoRequested;\n\n        string memory NameofRequester = userProfile[requester].fullName;\n        return (NameofRequester);\n    }\n\n    function isAvailable(\n        string memory _state,\n        string memory _district,\n        string memory _city,\n        uint256 _surveyNo\n    ) external view returns (bool) {\n        bool available = landDetalsMap[_state][_district][_city][_surveyNo]\n            .markAvailable;\n        return (available);\n    }\n\n    function getOwnerOwns(\n        uint256 indx\n    )\n        external\n        view\n        returns (string memory, string memory, string memory, uint256)\n    {\n        uint256 surveyNo = ownerMapsProperty[msg.sender][indx].surveyNumber;\n        string memory state = ownerMapsProperty[msg.sender][indx].state;\n        string memory district = ownerMapsProperty[msg.sender][indx].district;\n        string memory city = ownerMapsProperty[msg.sender][indx].city;\n\n        return (state, district, city, surveyNo);\n    }\n\n    function getAdminOwns(\n        uint256 indx\n    )\n        external\n        view\n        returns (string memory, string memory, string memory, uint256)\n    {\n        uint256 surveyNo = adminMapsProperty[msg.sender][indx].surveyNo;\n        string memory state = adminMapsProperty[msg.sender][indx].state;\n        string memory district = adminMapsProperty[msg.sender][indx].district;\n        string memory city = adminMapsProperty[msg.sender][indx].city;\n\n        return (state, district, city, surveyNo);\n    }\n\n    function getRequestedLands(\n        uint256 indx\n    )\n        external\n        view\n        returns (string memory, string memory, string memory, uint256)\n    {\n        uint256 surveyNo = requestedLands[msg.sender][indx].surveyNumber;\n        string memory state = requestedLands[msg.sender][indx].state;\n        string memory district = requestedLands[msg.sender][indx].district;\n        string memory city = requestedLands[msg.sender][indx].city;\n\n        return (state, district, city, surveyNo);\n    }\n\n    function getUserProfile()\n        external\n        view\n        returns (\n            string memory,\n            string memory,\n            string memory,\n            string memory,\n            string memory\n        )\n    {\n        string memory fullName = userProfile[msg.sender].fullName;\n        string memory gender = userProfile[msg.sender].gender;\n        string memory email = userProfile[msg.sender].email;\n        string memory contact = userProfile[msg.sender].contact;\n        string memory residentialAddr = userProfile[msg.sender].residentialAddr;\n\n        return (fullName, gender, email, contact, residentialAddr);\n    }\n\n    function getUserName(address _addr) external view returns (string memory) {\n        string memory fullName = userProfile[_addr].fullName;\n\n        return (fullName);\n    }\n\n\n\n    function getestablishYear(\n        address _addr\n    ) external view returns (string memory) {\n        string memory year = vendors[_addr].year;\n\n        return (year);\n    }\n\n    function getIndices() external view returns (uint256, uint256) {\n        uint256 _totalIndices = userProfile[msg.sender].totalIndices;\n        uint256 _reqIndices = userProfile[msg.sender].requestIndices;\n\n        return (_totalIndices, _reqIndices);\n    }\n\n    function didIRequested(\n        string memory _state,\n        string memory _district,\n        string memory _city,\n        uint256 _surveyNo\n    ) external view returns (bool) {\n        LandDetails storage thisLandDetail = landDetalsMap[_state][_district][\n            _city\n        ][_surveyNo];\n        uint256 _noOfRequests = thisLandDetail.noOfRequests;\n\n        if (_noOfRequests == 0) return (false);\n\n        for (uint256 i = 0; i < _noOfRequests; i++) {\n            if (thisLandDetail.requests[i].whoRequested == msg.sender) {\n                return (true);\n            }\n        }\n\n        return (false);\n    }\n\n    function getTotalTendors() external view returns (uint256) {\n        return (totalTendors);\n    }\n}\n",
  "sourcePath": "C:\\Users\\hp\\Downloads\\12-11EDi-master\\FInal_EDI\\contracts\\Registry.sol",
  "compiler": {
    "name": "solc",
    "version": "0.8.23+commit.f704f362.Emscripten.clang"
  },
  "schemaVersion": "3.4.15",
  "updatedAt": "2023-11-23T15:12:56.023Z",
  "networkType": "ethereum",
  "devdoc": {
    "kind": "dev",
    "methods": {},
    "version": 1
  },
  "userdoc": {
    "kind": "user",
    "methods": {},
    "version": 1
  }
}